:100000000C9462000C948A000C948A000C948A0070
:100010000C948A000C948A000C948A000C948A0038
:100020000C948A000C948A000C948A000C948A0028
:100030000C948A000C948A000C948A000C948A0018
:100040000C949C250C948A000C948A000C948A00D1
:100050000C948A000C948A000C948A000C948A00F8
:100060000C948A000C948A00000000070002010032
:100070000003040600000000000000000102040864
:100080001020408001020408102001020408102002
:10009000040404040404040402020202020203032E
:1000A00003030303000000002300260029000000D2
:1000B0000000250028002B0000000000240027007D
:1000C0002A001B2511241FBECFEFD8E0DEBFCDBF15
:1000D00011E0A0E0B1E0E0E5F1E502C005900D928D
:1000E000AC38B107D9F721E0ACE8B1E001C01D920E
:1000F000A83DB207E1F710E0C4ECD0E004C02297BD
:10010000FE010E941828C23CD107C9F70E94482767
:100110000C94A6280C940000809104019091050194
:10012000C2978233910514F48FEC93E0909305010C
:1001300080930401089584E00E941F27892BA9F071
:1001400082E00E941F27892B99F08EE00E941F27D2
:10015000892B89F08FE00E941F27892B19F483E0F7
:1001600090E0089580E090E0089581E090E00895A7
:1001700084E090E0089582E090E0089584E00E9499
:100180001F27892B79F082E00E941F27892B51F0CD
:100190008EE00E941F27892B29F08FE00E941F27E5
:1001A000892B39F461E070E080E090E00E9409263C
:1001B000E5CF08951F93CF93DF93182FC0E0D0E0D1
:1001C000812F0E941F27892B41F4219661E070E066
:1001D00080E090E00E940926F3CFCE01DF91CF911D
:1001E0001F910895FF920F931F93CF93DF938C017C
:1001F000F62EC0E0D0E0C017D1076CF48F2D0E941E
:100200001F27892B59F461E070E080E090E00E94A4
:1002100009262196F0CFC801019601C0CE01DF91D9
:10022000CF911F910F91FF9008951816190684F42D
:100230008091040190910501C296803D23E09207D0
:1002400014F082E390E090930501809304010895F7
:100250000C948C00CF93DF9369E170E08EEC91E019
:100260000E9495258931C1F46AE170E08EEC91E03D
:100270000E9495258A3181F46BE170E08EEC91E06B
:100280000E9495258B3141F46CE170E08EEC91E099
:100290000E9495258C3151F1C0E0D0E040E0BE01D4
:1002A0008EEC91E00E9498252196C832D105B1F7D5
:1002B00049E169E170E08EEC91E00E9498254AE105
:1002C0006AE170E08EEC91E00E9498254BE16BE1D1
:1002D00070E08EEC91E00E9498254CE16CE170E0BA
:1002E0008EEC91E0DF91CF910C949825DF91CF9126
:1002F00008950F931F93CF93DF931F92CDB7DEB76F
:100300008C01462FBC018EEC91E049830E9495251B
:100310004981841751F0B8018EEC91E00F90DF9184
:10032000CF911F910F910C9498250F90DF91CF9151
:100330001F910F910895FF920F931F93CF93DF9317
:100340006091CA0180E090E00E9479016091C9014A
:1003500081E090E00E94790104EB11E0C2E0D0E07E
:10036000F801F080BE018EEC91E00E9495258F157A
:1003700028F4F8016081CE010E94790121960F5F77
:100380001F4FC431D10561F76091B30185E190E061
:100390000E9479016091B20186E190E00E947901AA
:1003A000609105018EE190E00E9479016091040165
:1003B0008FE190E00E9479016091C80180E290E0B5
:1003C0000E9479016091C70181E290E0DF91CF91B5
:1003D0001F910F91FF900C9479019C0121503109DC
:1003E0002231310528F4FC01EC54FE4F2FEF20831D
:1003F00008958091C7019091C801019620E9AC0150
:10040000249FC001259F900D11240895EEE1F1E095
:1004100088E090E08193919321E0E633F207D1F7F1
:100420000895DB01BA01FC01EE0FFF1FE457FE4FF8
:100430000190F081E02DA901CD0109948F3F910534
:1004400081F42091C7013091C801442737FD4095C0
:10045000542F60E070E0CB010E948127262F972F58
:100460000DC097FD07C02091C7013091C801281722
:1004700039071CF420E090E001C0282F822F089556
:100480004F925F926F927F928F929F92AF92BF92A4
:10049000CF92DF92EF92FF92CF93DF93EC0127E0B0
:1004A00030E040E050E061E070E080E090E00E94E9
:1004B00081274B015C0127E030E040E050E061E043
:1004C00070E080E090E00E9481276B017C0127E0D2
:1004D00030E040E050E061E070E080E090E00E94B9
:1004E00081272B013C01CE010E941E029401A6012E
:1004F000B2010E9411028BEC91E00E947925DF91FC
:10050000CF91FF90EF90DF90CF90BF90AF909F90F2
:100510008F907F906F905F904F900C9406020F9396
:100520001F93CF93DF93EB018A018130C9F46130CF
:10053000710509F052C160917D0170917E0141E029
:100540008BEC91E00E945825B801882777FD8095B3
:10055000982F0E9409268BEC91E00E9479253DC1DD
:10056000823011F56130710509F052C160917D0151
:1005700070917E0141E08BEC91E00E9458256091E2
:100580007B0170917C0141E08BEC91E00E94582549
:10059000B801882777FD8095982F0E9409268BEC5B
:1005A00091E00E94792534C18330C9F4613071052E
:1005B00009F052C160917B0170917C0141E08BECAC
:1005C00091E00E945825B801882777FD8095982FE3
:1005D0000E9409268BEC91E00E9479253DC1843070
:1005E00011F56130710509F052C160917B01709184
:1005F0007C0141E08BEC91E00E94582560917901EB
:1006000070917A0141E08BEC91E00E945825B8018D
:10061000882777FD8095982F0E9409268BEC91E022
:100620000E94792534C18530C9F46130710509F023
:1006300095C06091790170917A0141E08BEC91E075
:100640000E945825B801882777FD8095982F0E9431
:1006500009268BEC91E00E94792580C0863011F547
:100660006130710509F095C06091790170917A014E
:1006700041E08BEC91E00E94582560917D017091E2
:100680007E0141E08BEC91E00E945825B80188275B
:1006900077FD8095982F0E9409268BEC91E00E94AF
:1006A000792577C0873059F56130710509F013C19C
:1006B00060917B0170917C0141E08BEC91E00E94A4
:1006C00058256091790170917A0141E08BEC91E0BD
:1006D0000E94582560917D0170917E0141E08BEC74
:1006E00091E00E945825B801882777FD8095982FC2
:1006F0000E9409268BEC91E00E947925ECC088309D
:1007000059F56130710509F013C160917B01709159
:100710007C0140E08BEC91E00E94582560917901CA
:1007200070917A0140E08BEC91E00E945825609135
:100730007D0170917E0140E08BEC91E00E94582594
:10074000B801882777FD8095982F0E9409268BECA9
:1007500091E00E947925ECC08530C9F4C230D10502
:1007600009F052C1609173017091740141E08BEC0A
:1007700091E00E945825B801882777FD8095982F31
:100780000E9409268BEC91E00E9479253DC18630BC
:1007900011F5C230D10509F052C160917701709115
:1007A000780141E08BEC91E00E9458256091730143
:1007B0007091740141E08BEC91E00E945825B801E2
:1007C000882777FD8095982F0E9409268BEC91E071
:1007D0000E94792534C18130C9F4C230D10509F0B5
:1007E000D4C0609177017091780141E08BEC91E089
:1007F0000E945825B801882777FD8095982F0E9480
:1008000009268BEC91E00E947925BFC0823011F55A
:10081000C230D10509F052C1609177017091780121
:1008200041E08BEC91E00E94582560917501709138
:10083000760141E08BEC91E00E945825B8018827B1
:1008400077FD8095982F0E9409268BEC91E00E94FD
:10085000792534C18330C9F4C230D10509F013C100
:10086000609175017091760141E08BEC91E00E94FE
:100870005825B801882777FD8095982F0E94092672
:100880008BEC91E00E947925FEC0843011F5C230D6
:10089000D10509F095C0609175017091760141E034
:1008A0008BEC91E00E945825609173017091740166
:1008B00041E08BEC91E00E945825B801882777FD34
:1008C0008095982F0E9409268BEC91E00E94792553
:1008D00077C0873059F5C230D10509F013C1609156
:1008E00077017091780141E08BEC91E00E945825EE
:1008F000609175017091760141E08BEC91E00E946E
:100900005825609173017091740141E08BEC91E086
:100910000E945825B801882777FD8095982F0E945E
:1009200009268BEC91E00E947925ECC0883059F5BE
:10093000C230D10509F013C160917701709178013F
:1009400040E08BEC91E00E94582560917501709118
:10095000760140E08BEC91E00E9458256091730194
:100960007091740140E08BEC91E00E945825B80131
:10097000882777FD8095982F0E9409268BEC91E0BF
:100980000E947925ECC08130C9F4C330D10509F04B
:1009900013C160916D0170916E0141E08BEC91E0AB
:1009A0000E945825B801882777FD8095982F0E94CE
:1009B00009268BEC91E00E947925FEC0843011F568
:1009C000C330D10509F052C160917101709172017B
:1009D00041E08BEC91E00E94582560916F0170918D
:1009E000700141E08BEC91E00E945825B801882706
:1009F00077FD8095982F0E9409268BEC91E00E944C
:100A0000792534C18530C9F4C330D10509F052C10C
:100A1000609171017091720141E08BEC91E00E9454
:100A20005825B801882777FD8095982F0E940926C0
:100A30008BEC91E00E9479253DC1863011F5C330E1
:100A4000D10509F052C1609171017091720141E0CC
:100A50008BEC91E00E94582560916D0170916E01C0
:100A600041E08BEC91E00E945825B801882777FD82
:100A70008095982F0E9409268BEC91E00E947925A1
:100A800034C18330C9F4C330D10509F0D4C06091BA
:100A90006F017091700141E08BEC91E00E9458254C
:100AA000B801882777FD8095982F0E9409268BEC46
:100AB00091E00E947925BFC0823011F5C330D10585
:100AC00009F095C060916F017091700141E08BEC6D
:100AD00091E00E94582560916D0170916E0141E096
:100AE0008BEC91E00E945825B801882777FD80950E
:100AF000982F0E9409268BEC91E00E94792577C0FF
:100B0000873059F5C330D10509F013C160917101E7
:100B10007091720141E08BEC91E00E945825609148
:100B20006F017091700141E08BEC91E00E945825BB
:100B300060916D0170916E0141E08BEC91E00E943B
:100B40005825B801882777FD8095982F0E9409269F
:100B50008BEC91E00E947925ECC0883059F5C330C8
:100B6000D10509F013C1609171017091720140E0EB
:100B70008BEC91E00E94582560916F01709170019B
:100B800040E08BEC91E00E94582560916D017091DE
:100B90006E0140E08BEC91E00E945825B801882757
:100BA00077FD8095982F0E9409268BEC91E00E949A
:100BB0007925ECC08130C9F4C430D10509F091C168
:100BC00060916B0170916C0141E08BEC91E00E94AF
:100BD0005825B801882777FD8095982F0E9409260F
:100BE0008BEC91E00E9479257CC1823011F5C430F4
:100BF000D10509F091C160916B0170916C0141E0E8
:100C00008BEC91E00E9458256091690170916A0116
:100C100041E08BEC91E00E945825B801882777FDD0
:100C20008095982F0E9409268BEC91E00E947925EF
:100C300073C18330C9F4C430D10509F0D4C06091C8
:100C4000690170916A0141E08BEC91E00E945825A6
:100C5000B801882777FD8095982F0E9409268BEC94
:100C600091E00E947925BFC0843011F5C430D105D0
:100C700009F0D4C06091690170916A0141E08BEC88
:100C800091E00E945825609167017091680141E0F0
:100C90008BEC91E00E945825B801882777FD80955C
:100CA000982F0E9409268BEC91E00E947925B6C00E
:100CB0008530C9F4C430D10509F0D4C06091670112
:100CC0007091680141E08BEC91E00E945825B801D9
:100CD000882777FD8095982F0E9409268BEC91E05C
:100CE0000E947925BFC0863011F5C430D10509F0C6
:100CF000D4C060916B0170916C0141E08BEC91E08C
:100D00000E945825609167017091680141E08BEC69
:100D100091E00E945825B801882777FD8095982F8B
:100D20000E9409268BEC91E00E947925B6C087309D
:100D300059F5C430D10509F013C160916B01709170
:100D40006C0141E08BEC91E00E94582560916901B3
:100D500070916A0141E08BEC91E00E94582560910E
:100D600067017091680141E08BEC91E00E94582589
:100D7000B801882777FD8095982F0E9409268BEC73
:100D800091E00E947925ECC0883059F5C430D10536
:100D900009F013C160916B0170916C0140E08BEC24
:100DA00091E00E9458256091690170916A0140E0CC
:100DB0008BEC91E00E945825609167017091680169
:100DC00040E08BEC91E00E945825B801882777FD20
:100DD0008095982F0E9409268BEC91E00E9479253E
:100DE000ECC08330C9F4C530D10509F052C160911F
:100DF00061017091620141E08BEC91E00E94582505
:100E0000B801882777FD8095982F0E9409268BECE2
:100E100091E00E9479253DC1843011F5C530D1059E
:100E200009F013C1609165017091660141E08BEC9E
:100E300091E00E945825609161017091620141E04A
:100E40008BEC91E00E945825B801882777FD8095AA
:100E5000982F0E9409268BEC91E00E947925F5C01D
:100E60008530C9F4C530D10509F0D4C06091650161
:100E70007091660141E08BEC91E00E945825B80129
:100E8000882777FD8095982F0E9409268BEC91E0AA
:100E90000E947925BFC0863011F5C530D10509F013
:100EA00052C1609165017091660141E08BEC91E067
:100EB0000E945825609163017091640141E08BECC0
:100EC00091E00E945825B801882777FD8095982FDA
:100ED0000E9409268BEC91E00E94792534C1813073
:100EE000C9F4C530D10509F013C160916301709157
:100EF000640141E08BEC91E00E945825B8018827FD
:100F000077FD8095982F0E9409268BEC91E00E9436
:100F10007925FEC0823011F5C530D10509F0D4C065
:100F2000609163017091640141E08BEC91E00E945B
:100F30005825609161017091620141E08BEC91E074
:100F40000E945825B801882777FD8095982F0E9428
:100F500009268BEC91E00E947925B6C0873059F5BF
:100F6000C530D10509F013C160916301709164012E
:100F700041E08BEC91E00E945825609161017091F5
:100F8000620141E08BEC91E00E945825609165017F
:100F90007091660141E08BEC91E00E945825B80108
:100FA000882777FD8095982F0E9409268BEC91E089
:100FB0000E947925ECC0883059F5C530D10509F07B
:100FC00013C1609163017091640140E08BEC91E08A
:100FD0000E945825609161017091620140E08BECA4
:100FE00091E00E945825609165017091660140E092
:100FF0008BEC91E00E945825B801882777FD8095F9
:10100000982F0E9409268BEC91E00E947925ECC074
:101010008530C9F4C630D10509F013C160915B0178
:1010200070915C0141E08BEC91E00E945825B80181
:10103000882777FD8095982F0E9409268BEC91E0F8
:101040000E947925FEC0843011F5C630D10509F023
:1010500013C160915F017091600141E08BEC91E000
:101060000E94582560915B0170915C0141E08BEC1E
:1010700091E00E945825B801882777FD8095982F28
:101080000E9409268BEC91E00E947925F5C08330FF
:10109000C9F4C630D10509F013C160915F017091A8
:1010A000600141E08BEC91E00E945825B80188274F
:1010B00077FD8095982F0E9409268BEC91E00E9485
:1010C0007925FEC0823011F5C630D10509F013C173
:1010D00060915D0170915E0141E08BEC91E00E94B6
:1010E000582560915F017091600141E08BEC91E0C7
:1010F0000E945825B801882777FD8095982F0E9477
:1011000009268BEC91E00E947925F5C08130C9F465
:10111000C630D10509F013C160915D0170915E0187
:1011200041E08BEC91E00E945825B801882777FDBB
:101130008095982F0E9409268BEC91E00E947925DA
:10114000FEC0863011F5C630D10509F013C160919B
:101150005D0170915E0141E08BEC91E00E945825A9
:1011600060915B0170915C0141E08BEC91E00E9429
:101170005825B801882777FD8095982F0E94092669
:101180008BEC91E00E947925F5C0873059F5C63087
:10119000D10509F013C160915D0170915E0141E0DC
:1011A0008BEC91E00E94582560915F017091600185
:1011B00041E08BEC91E00E94582560915B017091B9
:1011C0005C0141E08BEC91E00E945825B801882732
:1011D00077FD8095982F0E9409268BEC91E00E9464
:1011E0007925ECC0883059F5C630D10509F013C116
:1011F00060915D0170915E0140E08BEC91E00E9496
:10120000582560915F017091600140E08BEC91E0A6
:101210000E94582560915B0170915C0140E08BEC6D
:1012200091E00E945825B801882777FD8095982F76
:101230000E9409268BEC91E00E947925ECC0853054
:10124000C9F4C730D10509F095C16091550170917D
:10125000560141E08BEC91E00E945825B8018827A7
:1012600077FD8095982F0E9409268BEC91E00E94D3
:10127000792580C1843011F5C730D10509F095C1B9
:10128000609157017091580141E08BEC91E00E9410
:101290005825609155017091560141E08BEC91E029
:1012A0000E945825B801882777FD8095982F0E94C5
:1012B00009268BEC91E00E94792577C18330C9F42F
:1012C000C730D10509F0D4C0609157017091580121
:1012D00041E08BEC91E00E945825B801882777FD0A
:1012E0008095982F0E9409268BEC91E00E94792529
:1012F000BFC0823011F5C730D10509F0D4C060916C
:10130000590170915A0141E08BEC91E00E945825FF
:10131000609157017091580141E08BEC91E00E947F
:101320005825B801882777FD8095982F0E940926B7
:101330008BEC91E00E947925B6C08130C9F4C730AA
:10134000D10509F0D4C06091590170915A0141E072
:101350008BEC91E00E945825B801882777FD809595
:10136000982F0E9409268BEC91E00E947925BFC03E
:10137000863011F5C730D10509F0D8C06091590108
:1013800070915A0141E08BEC91E00E9458256091E8
:1013900055017091560141E08BEC91E00E94582577
:1013A000B801882777FD8095982F0E9409268BEC3D
:1013B00091E00E947925BAC0873059F5C730D10530
:1013C00009F017C16091590170915A0141E08BEC0D
:1013D00091E00E945825609157017091580141E0B9
:1013E0008BEC91E00E945825609155017091560157
:1013F00041E08BEC91E00E945825B801882777FDE9
:101400008095982F0E9409268BEC91E00E94792507
:10141000F0C0883059F5C730D10509F017C1609187
:10142000590170915A0140E08BEC91E00E945825DF
:10143000609157017091580140E08BEC91E00E945F
:101440005825609155017091560140E08BEC91E078
:101450000E945825B801882777FD8095982F0E9413
:1014600009268BEC91E00E947925F0C08330C9F405
:10147000C830D10509F056C16091510170915201F7
:1014800041E08BEC91E00E945825B801882777FD58
:101490008095982F0E9409268BEC91E00E94792577
:1014A00041C1823011F5C830D10509F056C16091B3
:1014B00053017091540141E08BEC91E00E9458255A
:1014C000609151017091520141E08BEC91E00E94DA
:1014D0005825B801882777FD8095982F0E94092606
:1014E0008BEC91E00E94792538C18130E9F4C83055
:1014F000D10509F056C18BEC91E00E9479256091ED
:1015000053017091540141E08BEC91E00E94582509
:10151000B801882777FD8095982F0E9409268BECCB
:1015200091E00E9479253DC1863011F5C830D10582
:1015300009F052C1609153017091540141E08BEC6C
:1015400091E00E94582560914F017091500141E057
:101550008BEC91E00E945825B801882777FD809593
:10156000982F0E9409268BEC91E00E94792534C1C6
:101570008530C9F4C830D10509F095C060914F019C
:101580007091500141E08BEC91E00E945825B80128
:10159000882777FD8095982F0E9409268BEC91E093
:1015A0000E94792580C0843011F5C830D10509F03A
:1015B00095C0609151017091520141E08BEC91E036
:1015C0000E94582560914F017091500141E08BECD1
:1015D00091E00E945825B801882777FD8095982FC3
:1015E0000E9409268BEC91E00E94792577C0873014
:1015F00059F5C830D10509F013C1609153017091BC
:10160000540141E08BEC91E00E945825609151011A
:101610007091520141E08BEC91E00E94582560915D
:101620004F017091500141E08BEC91E00E945825F0
:10163000B801882777FD8095982F0E9409268BECAA
:1016400091E00E947925ECC0883059F5C830D10569
:1016500009F013C1609153017091540140E08BEC8B
:1016600091E00E945825609151017091520140E033
:101670008BEC91E00E94582560914F0170915001D0
:1016800040E08BEC91E00E945825B801882777FD57
:101690008095982F0E9409268BEC91E00E94792575
:1016A000ECC08530C9F4CA30D10509F013C160918E
:1016B0004D0170914E0141E08BEC91E00E94582564
:1016C000B801882777FD8095982F0E9409268BEC1A
:1016D00091E00E947925FEC0843011F5CA30D10511
:1016E00009F013C160914D0170914E0141E08BEC06
:1016F00091E00E94582560914B0170914C0141E0AE
:101700008BEC91E00E945825B801882777FD8095E1
:10171000982F0E9409268BEC91E00E947925F5C054
:101720008330C9F4CA30D10509F013C160914B016F
:1017300070914C0141E08BEC91E00E945825B8017A
:10174000882777FD8095982F0E9409268BEC91E0E1
:101750000E947925FEC0823011F5CA30D10509F00A
:1017600013C160914B0170914C0141E08BEC91E011
:101770000E9458256091490170914A0141E08BEC2B
:1017800091E00E945825B801882777FD8095982F11
:101790000E9409268BEC91E00E947925F5C08130EA
:1017A000C9F4CA30D10509F013C1609149017091A3
:1017B0004A0141E08BEC91E00E945825B80188274E
:1017C00077FD8095982F0E9409268BEC91E00E946E
:1017D0007925FEC0863011F5CA30D10509F013C154
:1017E00060914D0170914E0141E08BEC91E00E94BF
:1017F00058256091490170914A0141E08BEC91E0DC
:101800000E945825B801882777FD8095982F0E945F
:1018100009268BEC91E00E947925F5C0873059F5B7
:10182000CA30D10509F013C160914B0170914C0190
:1018300041E08BEC91E00E94582560914901709144
:101840004A0141E08BEC91E00E94582560914D01E6
:1018500070914E0141E08BEC91E00E945825B80157
:10186000882777FD8095982F0E9409268BEC91E0C0
:101870000E947925ECC0883059F5CA30D10509F0AD
:1018800013C160914B0170914C0140E08BEC91E0F1
:101890000E9458256091490170914A0140E08BEC0B
:1018A00091E00E94582560914D0170914E0140E0F9
:1018B0008BEC91E00E945825B801882777FD809530
:1018C000982F0E9409268BEC91E00E947925ECC0AC
:1018D0008530C9F4C930D10509F013C160914501C3
:1018E0007091460141E08BEC91E00E945825B801CF
:1018F000882777FD8095982F0E9409268BEC91E030
:101900000E947925FEC0843011F5C930D10509F057
:1019100013C1609147017091480141E08BEC91E067
:101920000E945825609145017091460141E08BEC81
:1019300091E00E945825B801882777FD8095982F5F
:101940000E9409268BEC91E00E947925F5C0833036
:10195000C9F4C930D10509F013C1609147017091F4
:10196000480141E08BEC91E00E945825B80188279E
:1019700077FD8095982F0E9409268BEC91E00E94BC
:101980007925FEC0823011F5C930D10509F013C1A7
:10199000609147017091480141E08BEC91E00E9419
:1019A0005825609143017091440141E08BEC91E036
:1019B0000E945825B801882777FD8095982F0E94AE
:1019C00009268BEC91E00E947925F5C08130C9F49D
:1019D000C930D10509F013C16091430170914401F0
:1019E00041E08BEC91E00E945825B801882777FDF3
:1019F0008095982F0E9409268BEC91E00E94792512
:101A0000FEC0863011F5C930D10509F013C16091CF
:101A100045017091460141E08BEC91E00E94582510
:101A2000609143017091440141E08BEC91E00E9490
:101A30005825B801882777FD8095982F0E940926A0
:101A40008BEC91E00E947925F5C0873059F5C930BB
:101A5000D10509F013C1609147017091480141E03F
:101A60008BEC91E00E9458256091450170914601F0
:101A700041E08BEC91E00E94582560914301709108
:101A8000440141E08BEC91E00E945825B801882781
:101A900077FD8095982F0E9409268BEC91E00E949B
:101AA0007925ECC0883059F5C930D10509F013C14A
:101AB000609147017091480140E08BEC91E00E94F9
:101AC0005825609145017091460140E08BEC91E012
:101AD0000E945825609143017091440140E08BECD5
:101AE00091E00E945825B801882777FD8095982FAE
:101AF0000E9409268BEC91E00E947925ECC085308C
:101B0000C9F4CC30D10509F04CC160913F0170910E
:101B1000400141E08BEC91E00E945825B8018827F4
:101B200077FD8095982F0E9409268BEC91E00E940A
:101B3000792537C1843011F5CC30D10509F037C192
:101B400060913F017091400141E08BEC91E00E9477
:101B5000582560913D0170913E0141E08BEC91E090
:101B60000E945825B801882777FD8095982F0E94FC
:101B700009268BEC91E00E94792519C18330C9F4C4
:101B8000CC30D10509F0D4C060913D0170913E0187
:101B900041E08BEC91E00E945825B801882777FD41
:101BA0008095982F0E9409268BEC91E00E94792560
:101BB000BFC0823011F5CC30D10509F0C3C06091AF
:101BC00041017091420141E08BEC91E00E94582567
:101BD00060913D0170913E0141E08BEC91E00E94EB
:101BE0005825B801882777FD8095982F0E940926EF
:101BF0008BEC91E00E947925A5C08130C9F4CC30EE
:101C0000D10509F0AEC0609141017091420141E0FF
:101C10008BEC91E00E945825B801882777FD8095CC
:101C2000982F0E9409268BEC91E00E94792599C09B
:101C3000863011F5CC30D10509F0ADC0609141017D
:101C40007091420141E08BEC91E00E945825609137
:101C50003F017091400141E08BEC91E00E945825DA
:101C6000B801882777FD8095982F0E9409268BEC74
:101C700091E00E9479258FC0873059F5CC30D1058D
:101C800009F09FC0609141017091420141E08BECED
:101C900091E00E94582560913F017091400141E020
:101CA0008BEC91E00E94582560913D0170913E01BE
:101CB00041E08BEC91E00E945825B801882777FD20
:101CC0008095982F0E9409268BEC91E00E9479253F
:101CD00078C0883059F5CC30D10509F08FC06091BB
:101CE00041017091420140E08BEC91E00E94582547
:101CF00060913F017091400140E08BEC91E00E94C7
:101D0000582560913D0170913E0140E08BEC91E0DF
:101D10000E945825B801882777FD8095982F0E944A
:101D200009268BEC91E00E94792568C0833041F44C
:101D30002B9709F08FC060913B0170913C0118C056
:101D4000823069F42B9709F085C060913B01709156
:101D50003C0141E08BEC91E00E94582505C08130A8
:101D6000C1F42B9709F076C06091390170913A0166
:101D700041E08BEC91E00E945825B801882777FD5F
:101D80008095982F0E9409268BEC91E00E9479257E
:101D900061C0863021F42B9709F05CC01EC08530ED
:101DA00021F42B9709F056C021C0843041F42B97C1
:101DB00009F050C060913B0170913C0112C0873026
:101DC000D9F42B9709F046C060913B0170913C011A
:101DD00041E08BEC91E00E945825609139017091AF
:101DE0003A0141E08BEC91E00E9458256091370167
:101DF0007091380141E01BC0883061F52B9751F597
:101E000060913B0170913C0140E08BEC91E00E94BD
:101E100058256091390170913A0140E08BEC91E0D6
:101E20000E945825609137017091380140E08BEC99
:101E300091E00E945825B801882777FD8095982F5A
:101E40000E9409268BEC91E0DF91CF911F910F91B9
:101E50000C947925DF91CF911F910F9108952F92C6
:101E60003F924F925F926F927F928F929F92AF922A
:101E7000BF92CF92DF92EF92FF920F931F93CF9377
:101E8000DF93CDB7DEB72C970FB6F894DEBF0FBE49
:101E9000CDBF90931F0180931E0170932101609329
:101EA00020015093230140932201909325018093B8
:101EB00024017093270160932601509329014093D8
:101EC000280190932B0180932A0170932D01609338
:101ED0002C0150932F0140932E0190933101809358
:101EE0003001709333016093320150933501409378
:101EF00034012EE131E03A83298301E010E022240D
:101F00002394312C1C861B8624E6C22ED12CE12C76
:101F1000F12C1B821C821D821E82812C912C54016B
:101F20000E949B00181619060CF470C00E94E6254A
:101F30002B013C019B01AC018B819C81AD81BE8159
:101F4000281B390B4A0B5B0B2F83388749875A872D
:101F5000C216D306E406F5064CF040E050E0B801A6
:101F6000A981BA818C910E948F0204C08BEC91E010
:101F70000E9479252F81388549855A85213931403C
:101F80004105510584F14B825C826D827E822B85F6
:101F90003C852F5F3F4F3C872B872D3231401CF112
:101FA0005BE4529DC001539D900D1124AA2797FD1B
:101FB000A095BA2FC80ED91EEA1EFB1ED701C60176
:101FC0008C549109A109B10984349140A105B1054E
:101FD00040F0319421943108FFEF8F1A9F0AAF0A25
:101FE000BF0A1C861B8622E082169104A104B1045C
:101FF0000CF496CF0F5F1F4F29813A812E5F3F4F20
:102000003A8329830D30110509F087CF2C960FB63E
:10201000F894DEBF0FBECDBFDF91CF911F910F911E
:10202000FF90EF90DF90CF90BF90AF909F908F90F8
:102030007F906F905F904F903F902F9008952F92D8
:102040003F924F925F926F927F928F929F92AF9248
:10205000BF92CF92DF92EF92FF920F931F93CF9395
:10206000DF9300D01F92CDB7DEB789838B011A01B1
:1020700029010E94E6256B017C0188EEC80E83E0F1
:10208000D81EE11CF11C1B821A82662457FC609446
:10209000762C8A819B818215930584F54601570130
:1020A00084189508A608B7080E94E6256C157D05DA
:1020B0008E059F0598F40E94E62586169706A806C9
:1020C000B90638F040E050E0B80189810E948F02E3
:1020D000EBCF8BEC91E00E947925E6CF0E94E625BC
:1020E0006B017C0198EEC90E93E0D91EE11CF11C36
:1020F000EA81FB813196FB83EA83CBCF0F900F906F
:102100000F90DF91CF911F910F91FF90EF90DF9093
:10211000CF90BF90AF909F908F907F906F905F9087
:102120004F903F902F9008952F3C93E0390714F47F
:102130000C941F100C948F02BF92CF92DF92EF92FB
:10214000FF920F931F93CF93DF93B82E38E0E32EC7
:10215000F12C00E010E020E030E0CAEFD0E0C9014F
:1021600001966C012017310731F49E0145E050E0E3
:10217000BC018B2D05C09E0145E050E0BC0188E00C
:102180000E949410E2960E949B001816190684F093
:102190009601C23593E0D90711F70F5F1F4F0C303E
:1021A0001105C9F681E0E81AF108E114F10489F695
:1021B000DF91CF911F910F91FF90EF90DF90CF9023
:1021C000BF900895BF92CF92DF92EF92FF920F934C
:1021D0001F93CF93DF93B82E5CE0E52EF12CC12C3A
:1021E000D12CC0E0D0E000E010E00F5F1F4F9E0157
:1021F00041E050E0B8018B2D0E9494100C30110585
:10220000A1F70E949B0018161906E4F0C53883E078
:10221000D8076CF4C114D10431F4C43883E0D80772
:1022200059F06E96E0CF1C161D0634F403C0CC2482
:10223000C394D12C6E97D7CF81E0E81AF108E1144E
:10224000F10479F6DF91CF911F910F91FF90EF90FC
:10225000DF90CF90BF9008954F925F926F927F92E0
:102260009F92AF92BF92CF92DF92EF92FF920F9325
:102270001F93CF93DF93982E8B015A018091040115
:10228000909105018F3C93400CF045C00E94E625DB
:102290006B017C0138EEC30E33E0D31EE11CF11C50
:1022A000C0E0D0E0CA15DB050CF047C00E94E6256F
:1022B0006C157D058E059F0510F50E94E625209181
:1022C0000401309105012901662457FC6094762CA5
:1022D000A70196012419350946095709261737071A
:1022E0004807590738F040E050E0B801892D0E94B6
:1022F0008F02DCCF8BEC91E00E947925D7CF0E9432
:10230000E6256B017C0138EEC30E33E0D31EE11CE1
:10231000F11C2196C7CF892DDF91CF911F910F918D
:10232000FF90EF90DF90CF90BF90AF909F907F9005
:102330006F905F904F900C948F02DF91CF911F911F
:102340000F91FF90EF90DF90CF90BF90AF909F9054
:102350007F906F905F904F900895CF93DF9382E0CE
:102360000E941F27892B31F5C1E0D0E041E050E009
:10237000BE0187E00E942C118FE00E941F27892B4D
:1023800049F48FE090E00E94DA0081E090E00E9442
:1023900015010BC08EE00E941F27892B31F48EE0BF
:1023A00090E00E94DA000E948C002196CD30D10589
:1023B000E9F6D5CFDF91CF910C949B018F929F923C
:1023C000AF92BF92CF92DF92EF92FF920F931F9343
:1023D000CF93DF938090C9019090CA010E94F901C8
:1023E000881A990A80E9880E911C00E010E07CE0D0
:1023F000A72EB12C0815190514F5C801B5010E94C6
:10240000A2276B0165E0E62EF12CC1E0D0E041E0AF
:1024100050E0BE01CC16DD0614F085E001C088E076
:102420000E942C112196CD30D10589F781E0E81A60
:10243000F108E114F10449F7045F1F4FDBCFDF918E
:10244000CF911F910F91FF90EF90DF90CF90BF90B1
:10245000AF909F908F9008950F931F93CF93DF932A
:102460000AE010E0C1E0D0E08091C7019091C8017E
:102470009E012150310941E050E0BE0182179307CF
:1024800014F083E001C088E00E942C112196CD3029
:10249000D10551F7015011090115110519F7DF9107
:1024A000CF911F910F910895EF92FF920F931F9379
:1024B000CF93DF93EAE0EE2EF12CC1E0D0E001E013
:1024C00010E04AE050E0B8018C2F0E942C112196B8
:1024D000C830D10514F0C1E0D0E00F5F1F4F0D30C0
:1024E000110579F78BEC91E00E94792581E0E81ADB
:1024F000F108E114F10419F7DF91CF911F910F91C9
:10250000FF90EF900C94DE110F931F93CF93DF9306
:102510008091C9019091CA01815991098039910531
:1025200028F48091B501882309F4ADC08091C901D8
:102530009091CA01815291408039910528F480918F
:10254000B601882309F4B7C08091C9019091CA01EE
:10255000815B91408039910528F48091B7018823EF
:1025600009F4C5C08091C9019091CA01815492407B
:102570008039910528F48091B801882309F4D5C0E9
:102580008091C9019091CA01815D92408039910585
:1025900028F48091B901882309F4E7C08091C9012A
:1025A0009091CA01815693408039910528F4809119
:1025B000BA01882309F4FBC08091C9019091CA0136
:1025C000815F93408039910528F48091BB01882375
:1025D00009F411C18091C9019091CA0181589440B8
:1025E0008039910528F48091BC01882309F429C120
:1025F0008091C9019091CA0181519540803991051E
:1026000028F48091BD01882309F443C18091C90158
:102610009091CA01815A95408039910528F48091A2
:10262000BE01882309F45DC18091C9019091CA015E
:10263000815396408039910528F48091BF01882309
:1026400009F479C18091C9019091CA01813C9640F9
:1026500034F4DF91CF911F910F910C940602809179
:10266000C001882309F493C105EB11E0C1E0D0E07B
:10267000F80181918F01882309F49DC12196C3310E
:10268000D105B1F7E6CF81E090E09093C801809347
:10269000C7018FEF8093B5018093C1010E9454124E
:1026A00021E030E041E050E061E070E081E090E066
:1026B0000E9411023BCF82E090E09093C80180938A
:1026C000C7018FEF8093B5018093B6018093C1015C
:1026D0008093C2010E94541221E030E041E050E0BA
:1026E00061E070E082E090E00E9411022DCF83E073
:1026F00090E09093C8018093C7018FEF8093B5015C
:102700008093B6018093B7018093C2018093C10189
:102710000E94541221E030E041E050E061E070E0BE
:1027200083E090E00E9411021DCF84E090E090933E
:10273000C8018093C7018FEF8093B8018093B701E0
:102740008093B6018093C2018093B5018093C1014B
:102750000E94541221E030E041E050E061E070E07E
:1027600084E090E00E9411020BCF85E090E090930E
:10277000C8018093C7018FEF8093B9018093B8019E
:102780008093B7018093B6018093C2018093B50115
:102790008093C1010E94541221E030E041E050E0FA
:1027A00061E070E085E090E00E941102F7CE86E0E3
:1027B00090E09093C8018093C7018FEF8093BA0196
:1027C0008093B9018093B8018093B7018093B601DB
:1027D0008093C2018093B5018093C1010E9454127D
:1027E00021E030E041E050E061E070E086E090E020
:1027F0000E941102E1CE87E090E09093C80180939F
:10280000C7018FEF8093BB018093BA018093B90118
:102810008093B8018093B7018093B6018093C20181
:102820008093B5018093C1010E94541221E030E0F1
:1028300041E050E061E070E087E090E00E9411022A
:10284000C9CE88E090E09093C8018093C7018FEFD4
:102850008093BC018093BB018093BA018093B9013E
:102860008093B8018093B7018093B6018093C20131
:102870008093B5018093C1010E94541221E030E0A1
:1028800041E050E061E070E088E090E00E941102D9
:10289000AFCE89E090E09093C8018093C7018FEF9D
:1028A0008093BD018093BB018093BA018093B901ED
:1028B0008093B8018093B7018093B6018093C201E1
:1028C0008093B5018093C1010E94541221E030E051
:1028D00041E050E061E070E089E090E00E94110288
:1028E00095CE8AE090E09093C8018093C7018FEF66
:1028F0008093BE018093BD018093BB018093BA0198
:102900008093B9018093B8018093B7018093B60199
:102910008093C2018093B5018093C1010E9454123B
:1029200021E030E041E050E061E070E08AE090E0DA
:102930000E94110279CE8BE090E09093C8018093C1
:10294000C7018FEF8093BF018093BE018093BD01CB
:102950008093BB018093BA018093B9018093B80141
:102960008093B7018093B6018093C2018093B50133
:102970008093C1010E94541221E030E041E050E018
:1029800061E070E08BE090E00E9411025BCE0E945B
:1029900054128FEF8093C0018CE090E09093C801B7
:1029A0008093C70121E030E041E050E061E070E059
:1029B0000E94110259CECE010E94ED015FCE0F930D
:1029C0001F93CF93DF9361E070E08EEC91E00E9463
:1029D0009525C82F60E070E08EEC91E00E9495256F
:1029E0006C2F0E949D279093CA018093C90166E1D4
:1029F00070E08EEC91E00E949525C82F65E170E0B3
:102A00008EEC91E00E9495256C2F0E949D2790935B
:102A1000B3018093B2016FE170E08EEC91E00E940F
:102A20009525C82F6EE170E08EEC91E00E9495250F
:102A30006C2F0E949D27909305018093040104EB65
:102A400011E0C2E0D0E0BE018EEC91E00E9495253D
:102A5000F80181938F012196C631D105A1F761E27A
:102A600070E08EEC91E00E949525C82F60E270E046
:102A70008EEC91E00E9495256C2F0E949D279093EB
:102A8000C8018093C70140E9489F9001499F300DDC
:102A900011242F5F3F4F3093CA012093C901DF916A
:102AA000CF911F910F910C9484122091C901309104
:102AB000CA01280F391F3093CA012093C901C901E7
:102AC0000E942C128091C7019091C8010C9714F4B8
:102AD0000E94DE110E9484128091C9019091CA0166
:102AE00097FF18C02091C7013091C80140E9429F6B
:102AF000C001439F900D112401969093CA018093C9
:102B0000C9018091C301811105C08FEF8093C3017A
:102B10000C94541208958F929F92AF92BF92CF92CD
:102B2000DF92EF92FF920F931F93CF93DF9327E0F3
:102B300030E040E050E061E070E080E090E00E9432
:102B400081275B01A8E0EA2EF12CB8E08B2E912CB6
:102B5000CEE1D1E0B982A882FEE1CF2EF1E0DF2EF6
:102B600000E010E00F5F1F4FF6018081F2E0CF0E12
:102B7000D11C43E050E0B8010E942C110E949B0040
:102B8000181619067CF00C30110561F7899299929C
:102B900081E0C633D807F1F691E0E91AF108E114B3
:102BA000F104B1F6DF91CF911F910F91FF90EF905B
:102BB000DF90CF90BF90AF909F908F9008956F92CD
:102BC0007F928F929F92AF92BF92CF92DF92EF92BD
:102BD000FF920F931F93CF93DF93782E662E08E01A
:102BE000E02EF12C8CE0A82EB12CC1E0D0E01AE050
:102BF000C12ED12C45018C1A9D0A01E010E0C017AE
:102C0000D10731F00F5F1F4F0D301105C1F717C00D
:102C100043E050E0BE01872D0E942C110E949B00D2
:102C200018161906E4F043E050E0B401862D0E9426
:102C30002C110E949B001816190624F710C081E081
:102C4000C81AD108C114D104C1F62196CD30D105DE
:102C500071F681E0E81AF108E114F10431F6DF9130
:102C6000CF911F910F91FF90EF90DF90CF90BF9089
:102C7000AF909F908F907F906F9008956F927F920A
:102C80008F929F92AF92BF92CF92DF92EF92FF927C
:102C90000F931F93CF93DF9387E090E090931F01F2
:102CA00080931E0190932B0180932A015AE0A52E58
:102CB000B12C01E010E0C8E0D0E065E0E62EF12C98
:102CC000109321010093200110932301009322010E
:102CD00010932501009324011093270100932601EE
:102CE0001093290100932801D0932D01C0932C014A
:102CF000D0932F01C0932E01D0933101C0933001A6
:102D0000D0933301C0933201D0933501C093340185
:102D10009AE0892E912C4EE1642E41E0742EC12C54
:102D2000D12C8FEFC81AD80AF3018081F2E06F0E20
:102D3000711C41E050E0B6010E942C110E949B00E2
:102D4000181619060CF45EC08CE0C816D10449F7B9
:102D500091E0891A910881149104E9F6D093210138
:102D6000C0932001D0932301C0932201D093250169
:102D7000C0932401D0932701C0932601D093290149
:102D8000C0932801F0922D01E0922C01F0922F01C6
:102D9000E0922E01F0923101E0923001F092330185
:102DA000E0923201F0923501E09234013AE0832E54
:102DB000912C2EE1622E21E0722EC12CD12CEFEF4E
:102DC000CE1ADE0AF3018081F2E06F0E711C41E041
:102DD00050E0B6010E942C110E949B0018161906A3
:102DE0008CF08CE0C816D10451F791E0891A910853
:102DF00081149104F1F6E1E0AE1AB108A114B10416
:102E000009F05ECFDF91CF911F910F91FF90EF906E
:102E1000DF90CF90BF90AF909F908F907F906F90FA
:102E200008956F927F928F929F92AF92BF92CF92AE
:102E3000DF92EF92FF920F931F93CF93DF937C016A
:102E40008A0199E0A92EB12CC8E0D0E0F0921F01D0
:102E5000E0921E01D0932101C0932001D093230161
:102E6000C0932201F0922501E0922401D093270122
:102E7000C0932601D0932901C093280110933501F6
:102E800000933401D0933301C0933201D0933101C8
:102E9000C093300110932F0100932E01D0932D0188
:102EA000C0932C01D0932B01C0932A017AE0872E86
:102EB000912C8EE1682E81E0782EC12CD12C8FEFE1
:102EC000C81AD80AF3018081F2E06F0E711C41E04C
:102ED00050E0B6010E942C110E949B0018161906A2
:102EE0000CF4BCC08CE0C816D10449F791E0891AF3
:102EF000910881149104E9F6D0931F01C0931E013B
:102F0000F0922101E0922001D0932301C09322018D
:102F1000D0932501C0932401F0922701E09226016D
:102F2000D0932901C0932801D0933501C093340177
:102F30001093330100933201D0933101C0933001DB
:102F4000D0932F01C0932E0110932D0100932C01DB
:102F5000D0932B01C0932A01BAE08B2E912CAEE1C5
:102F60006A2EA1E07A2EC12CD12CEFEFCE1ADE0A08
:102F7000F3018081F2E06F0E711C41E050E0B60178
:102F80000E942C110E949B00181619060CF466C0B2
:102F90008CE0C816D10449F791E0891A9108811490
:102FA0009104E9F6D0931F01C0931E01D093210133
:102FB000C0932001F0922301E0922201D0932501D9
:102FC000C0932401D0932701C0932601F0922901D8
:102FD000E0922801D0933501C0933401D09333019E
:102FE000C09332011093310100933001D0932F012F
:102FF000C0932E01D0932D01C0932C0110932B016F
:1030000000932A01FAE08F2E912CEEE16E2EE1E082
:103010007E2EC12CD12CEFEFCE1ADE0AF301808177
:10302000F2E06F0E711C41E050E0B6010E942C11DD
:103030000E949B00181619068CF08CE0C816D1046B
:1030400051F791E0891A910881149104F1F6E1E0B9
:10305000AE1AB108A114B10409F0F8CEDF91CF91F6
:103060001F910F91FF90EF90DF90CF90BF90AF90A6
:103070009F908F907F906F900895CF92DF92EF9204
:10308000FF920F931F93CF93DF9320911E013091F6
:103090001F012830310521F030E3E32EF12CB3C0BD
:1030A000209120013091210128303105A9F720918C
:1030B0002201309123012830310571F7209124013C
:1030C000309125012830310539F7209126013091C2
:1030D00027012830310501F720912801309129017D
:1030E00028303105C9F620912A0130912B01283072
:1030F000310591F620912C0130912D0128303105B8
:1031000059F620912E0130912F012830310521F6FA
:1031100020913001309131012830310509F0BCCFC8
:1031200020913201309133012830310509F0B4CFBC
:1031300020913401309135012830310509F0ACCFB0
:1031400090931F0180931E017093210160932001D1
:103150003093230120932201909325018093240131
:103160007093270160932601309329012093280151
:1031700090932B0180932A0170932D0160932C0171
:1031800030932F0120932E019093310180933001D1
:1031900070933301609332017FCF2EE1C22E21E084
:1031A000D22EC0E0D0E02196F6018081F2E0CF0E71
:1031B000D11C41E050E0BE010E942C110E949B00F6
:1031C000181619061CF1CC30D10569F70150110908
:1031D0000115110511F78091340190913501E4E357
:1031E000F1E0329122913383228321E0EE31F20724
:1031F000C1F790931F0180931E0181E0E81AF10846
:10320000E114F10419F00AE010E0C7CFDF91CF918B
:103210001F910F91FF90EF90DF90CF900895EEE116
:10322000F1E081E090E09183808393838283019633
:10323000349687309105B9F740E050E060E070E0E7
:1032400080E090E00C943D18CF92DF92EF92FF92D5
:103250000F931F93CF93DF9372E0E72EF12C03E0DF
:1032600010E04AE0C42ED12CC1E0D0E041E050E0B3
:10327000BE0182E00E942C110E949B0018161906C4
:103280000CF45EC12196CD30D10581F781E0C81ADA
:10329000D108C114D10441F76AE0C62ED12CC1E097
:1032A000D0E0CA30D10529F42196CD30D105C9F737
:1032B0000CC041E050E0BE0182E00E942C110E944F
:1032C0009B001816190684F73BC181E0C81AD10883
:1032D000C114D10421F75AE0C52ED12CC1E0D0E0B1
:1032E000CE010997039728F42196CD30D105C1F777
:1032F0000CC041E050E0BE0182E00E942C110E940F
:103300009B001816190684F71BC181E0C81AD10862
:10331000C114D10419F7015011090115110509F063
:10332000A0CF0AE010E0C1E0D0E041E050E0BE01F3
:1033300082E00E942C110E949B00181619060CF4C2
:10334000FFC02196CD30D10581F70150110901153B
:10335000110549F781E0E81AF108E114F10409F0D8
:103360007ECF0AE010E0C1E0D0E0CA30D10529F4F8
:103370002196CD30D105C9F70CC041E050E0BE0127
:1033800082E00E942C110E949B001816190684F7F7
:10339000D7C0015011090115110529F70AE010E005
:1033A000C1E0D0E0CE010997039728F42196CD30F3
:1033B000D105C1F70CC041E050E0BE0182E00E949F
:1033C0002C110E949B001816190684F7B9C00150F1
:1033D00011090115110521F70AE010E0C1E0D0E064
:1033E000CE010897059728F42196CD30D105C1F775
:1033F0000CC041E050E0BE0182E00E942C110E940E
:103400009B001816190684F79BC00150110901157D
:10341000110521F70AE010E0C1E0D0E0CE010797E6
:10342000069728F42196CD30D105C1F70FC0C130E1
:10343000D105C1F341E050E0BE0182E00E942C11B1
:103440000E949B00181619066CF77AC001501109EA
:103450000115110509F70AE010E0C1E0D0E0CE0146
:103460000297059728F02196CD30D105C1F70CC001
:1034700041E050E0BE0182E00E942C110E949B00BE
:103480001816190684F75CC00150110901151105C1
:1034900021F70AE010E0C1E0D0E0CE0103970397E6
:1034A00028F02196CD30D105C1F70CC041E050E0A5
:1034B000BE0182E00E942C110E949B001816190682
:1034C00084F73EC0015011090115110521F70AE0EA
:1034D00010E0C1E0D0E02196CD30D10581F0C430BC
:1034E000D105C9F741E050E064E070E082E00E945D
:1034F0002C110E949B00181619066CF721C0015070
:1035000011090115110529F70AE010E0C1E0D0E02A
:10351000C0FD05C02196CD30D105D1F70CC041E0EA
:1035200050E0BE0182E00E942C110E949B00181600
:10353000190684F705C0015011090115110531F76D
:10354000DF91CF911F910F91FF90EF90DF90CF907F
:1035500008956F927F928F929F92AF92BF92CF9277
:10356000DF92EF92FF920F931F93CF93DF93682E1A
:10357000762EF8E0EF2EF12CC1E0D0E0EAE0CE2E7E
:10358000D12C4E0186E0881A91085E0186E0A80ED3
:10359000B11C01E010E0C017D10731F00F5F1F4FE1
:1035A0000D301105C1F71CC043E050E0BE01862D6F
:1035B0000E942C110E949B001816190614F143E07A
:1035C00050E0C730D10514F4B50101C0B401872D16
:1035D0000E942C110E949B0018161906FCF611C0BF
:1035E00081E0C81AD108C114D10499F62196CD30D2
:1035F000D10521F681E0E81AF108E114F10409F09F
:10360000BBCFDF91CF911F910F91FF90EF90DF9093
:10361000CF90BF90AF909F908F907F906F900895C4
:10362000CF92DF92EF92FF920F931F93CF93DF938E
:10363000DD24D39400E010E0CC24CA94CD0CA3E0A8
:10364000EA2EF12CC1E0D0E09E012150310941E089
:1036500050E0BE01021713074CF08D2D0E942C1173
:103660000E949B001816190624F416C08C2D0E9487
:103670002C112196CD30D10539F781E0E81AF108F7
:10368000E114F104F9F60F5F1F4F0C301105B9F684
:10369000D39488E0D812CECFDF91CF911F910F91B4
:1036A000FF90EF90DF90CF9008958F929F92BF92FE
:1036B000CF92DF92EF92FF920F931F93CF93DF93FE
:1036C000B82EC8E0EC2EF12CC4E0D0E005E010E00C
:1036D0006E0194E0C91AD10820E030E0C9010196DA
:1036E0004C01C217D3072CF494012C303105B1F7EB
:1036F0000FC02C153D05C4F343E050E0BC018B2DF9
:103700000E942C110E949B00181619066CF73DC0F0
:103710000150110901151105F9F62196CC30D1059A
:10372000A9F60CE010E0B5E0CB2ED12C480184E0E6
:10373000880E911CCCE0D0E0C017D1071CF4219773
:10374000D8F711C08C169D06D4F343E050E0BE01BB
:103750006F5F7F4F8B2D0E942C110E949B001816CB
:1037600019066CF712C091E0C91AD108C114D1042E
:1037700009F70150110901151105A9F691E0E91A9F
:10378000F108E114F10409F09FCFDF91CF911F916F
:103790000F91FF90EF90DF90CF90BF909F908F9010
:1037A0000895EF92FF920F931F93CF93DF931F9291
:1037B000CDB7DEB791E00AE010E0EE24E394F12CFF
:1037C00045E050E0B701892F99830E942C118FEFBB
:1037D000E81AF80A9981EDE0EE16F10489F7015034
:1037E00011090115110549F79F5F983021F70F90D6
:1037F000DF91CF911F910F91FF90EF90089584E199
:103800000E946A260E94552760E084E00E94B0264C
:1038100060E082E00E94B02660E08EE00E94B02668
:1038200060E08FE00E94B0268BE895E190938D01D7
:1038300080938C0181E197E190938F0180938E01B9
:103840008DE398E190939101809390018FED95E144
:1038500090939301809392018FE099E19093950169
:10386000809394018EE396E1909397018093960163
:103870008FE29FE0909399018093980189EA9AE101
:1038800090939B0180939A0184E299E190939D012A
:1038900080939C018CE990E190939F0180939E011D
:1038A00080E19BE19093A1018093A00185E59BE1DC
:1038B0009093A3018093A20182EE90E19093A501E1
:1038C0008093A40169E170E08EEC91E00E9495255F
:1038D0008931C1F46AE170E08EEC91E00E94952597
:1038E0008A3181F46BE170E08EEC91E00E949525C5
:1038F0008B3141F46CE170E08EEC91E00E949525F3
:103900008C3121F00E942A010E94D11B0C94DF14FB
:103910002F923F924F925F926F927F928F929F92DF
:10392000AF92BF92CF92DF92EF92FF920F931F93CD
:10393000CF93DF93CDB7DEB766970FB6F894DEBFAF
:103940000FBECDBF0E94BE0020EA36E841E050E045
:103950002F83388749875A8741E050E05C874B873F
:1039600022242394312C8CE090E09E838D83A7E069
:10397000B0E0BA83A983E12CF12CE1E0F0E0FC8314
:10398000EB8362E070E088EE93E00E94F200883EF4
:10399000F3E09F070CF06DC2181619063CF48BEC8F
:1039A00091E00E9479250E94BE00BEC10E94BE0027
:1039B000E6E0F1E088E090E08193919321E0EE3140
:1039C000F207D1F706E011E0C12CD12C3FEFE31A4A
:1039D000F30A4B815C814F30510564F027E030E001
:1039E00040E050E061E070E080E090E00E948127DC
:1039F0007A836983E981FA81D801ED93FC9386E0AB
:103A0000482E81E0582EA12CB12CFFEFEF1AFF0AAF
:103A10002FEFA21AB20AD2018C91B2E04B0E511CC8
:103A20004D815E81B5010E942C1182E00E941F270A
:103A3000892B09F4A6CF84E00E941F27892B09F067
:103A400076C00E94BE00E6E0CE16D104D9F523E090
:103A500030E03093130120931201BAE08B2E912CA9
:103A6000F6E06F2EF1E07F2EEE24E394F12CD301EB
:103A70008C91B2E06B0E711C4CE050E0B7010E94DB
:103A80002C11EFEFEE1AFE0AFDE0EF16F10479F7C4
:103A90008BEC91E00E94792521E0821A9108811433
:103AA0009104F1F648E050E0509313014093120165
:103AB0008B819C8101969C838B830E945515E12C00
:103AC000F12C35C0E1E0F0E0D801ED93FC93E5E0A6
:103AD000EE2EF12C66E0862E61E0962E662463942D
:103AE000712CD4018C91B2E08B0E911C49E150E015
:103AF000B3010E942C11EFEF6E1A7E0AFDE06F16E3
:103B0000710479F78BEC91E00E94792521E0E21AAB
:103B1000F108E114F104F1F6E8E0F0E0D801ED93EA
:103B2000FC93E12CF12C21E030E03C832B833CE042
:103B3000A316B10409F069CFD801E8E0F0E0ED93F5
:103B4000FD938D012B813C8123303105FCF0C901AF
:103B500003978230910508F102978230910530F188
:103B600002978230910558F102978230910580F1D9
:103B7000029782309105A8F102970297D0F543E0B1
:103B800050E05E834D8383E090E028C0A3E0B0E086
:103B9000BE83AD83E7E0F0E02AC023E030E03E835F
:103BA0002D8341E050E05A83498323C083E090E0B5
:103BB0009E838D83A5E0B0E0BA83A9831AC0E3E0B9
:103BC000F0E0FE83ED8324E030E03A83298311C0E6
:103BD00043E050E05E834D8386E090E09A838983E2
:103BE00008C0A3E0B0E0BE83AD83E2E0F0E0FA837A
:103BF000E983FFEFCF1ADF0A2CE0C216D10409F0E7
:103C0000E5CE3FEFE31AF30A49E9E4164AE3F40686
:103C100008F4B7CE2EC18091C101882309F405C1F3
:103C20000E94BE00E6E0F1E088E090E021E030E0B4
:103C30003183208393838283349631E0EE31F3071E
:103C4000A9F706E010E08AE0C82ED12C46E0A42EA9
:103C500041E0B42E812C912C4FEF841A940AD501A7
:103C60008C91B2E0AB0EB11C41E050E0B4010E9477
:103C70002C11EDE08E16910479F7F1E0CF1AD108FE
:103C8000C114D10419F73801660C771CF301EA5FFF
:103C9000FE4F8080918027E030E0318320833AE03E
:103CA000A32EB12C96E0C92E91E0D92E412C512C97
:103CB0003FEF431A530AD6018C91B2E0CB0ED11CD0
:103CC00041E050E0B2010E942C11EDE04E1651048B
:103CD00079F7F1E0AF1AB108A114B10419F7F301B3
:103CE000EA5FFE4F9182808284E00E941F27892B29
:103CF00009F0E3C00E94BE00992493948EE00E94D4
:103D00001F27892B09F4DBC08FE00E941F27892B16
:103D100009F4DEC082E00E941F27892B09F0DFC072
:103D200081E090E09C838B8362E070E088EE93E01A
:103D30000E94F200883EB3E09B070CF09AC0181670
:103D400019060CF068CF8BEC91E00E9479250E9457
:103D5000BE006BC08091C201882309F47AC00E9422
:103D6000BE002BE030E040E050E060E070E0CB01CE
:103D70000E9481274B015C012B012BE030E040E0E9
:103D800050E060E070E0CB010E9481273B01861685
:103D9000970649F4BBE04B16510409F421C13401E4
:103DA000EFEF6E1A7E0A2BE030E040E050E060E07A
:103DB00070E0CB010E948127B62EA72E2BE030E0C9
:103DC00040E050E060E070E0CB010E9481278B0171
:103DD000C12CD12C2091040130910501B6016F5FF7
:103DE0007F4F41E050E0C414D50409F0FCC085E0E9
:103DF0000E949410FFEFCF1ADF0A2CE0C216D10404
:103E000049F784E00E941F27892B09F0F3C00E9424
:103E1000BE0031E03B8382E00E941F27892B09F01E
:103E2000EBC081E090E09C838B8362E070E088EEE1
:103E300093E00E94F200883EA3E09A07D4F418169B
:103E400019060CF087CF8BEC91E00E9479250E9437
:103E5000BE008091C301882309F493CD62E070E035
:103E600088EE93E00E94F200883EF3E09F070CF496
:103E700052C180E090E00E9455150E949B018BEC9E
:103E800091E00E94792566960FB6F894DEBF0FBECA
:103E9000CDBFDF91CF911F910F91FF90EF90DF90F9
:103EA000CF90BF90AF909F908F907F906F905F90DA
:103EB0004F903F902F900C94BE00912C1FCF0F5F1E
:103EC0001F4F0C3011050CF41FCF00E010E01CCF89
:103ED0000150110917FF1ECF0BE010E01BCF2FEF91
:103EE000E21AF20A992009F4AECE41E050E05E8772
:103EF0004D87E12CF12CAAE0CA2ED12CAA24A39440
:103F0000B12CC5010197AD85BE8541E050E0B501FA
:103F10008A179B0714F483E001C088E00E942C11EB
:103F2000BFEFAB1ABB0AEEE0AE16B10451F7F1E0F9
:103F3000CF1AD108C114D10409F784E00E941F27C9
:103F4000892B21F40E94BE00D92C01C0D12C8EE017
:103F50000E941F27892B69F42D853E852F5F3F4FD7
:103F60003E872D872D30310524F041E050E05E87FB
:103F70004D878FE00E941F27892B59F48D859E85E0
:103F800001979E878D87892B21F4ACE0B0E0BE8736
:103F9000AD8782E00E941F27892B29F4A1E0B0E0C1
:103FA000BC83AB83C1CEBFEFEB1AFB0ADD2009F463
:103FB000A2CF8D859E859195819591090E94551579
:103FC000E6E0F1E088E090E021E030E0318320831A
:103FD00093838283349631E0EE31F307A9F78EC2E2
:103FE000612C712CE0CEC614D70411F483E000CF0D
:103FF00088E0FECE1B820FCF4FEFE41AF40A5B81FC
:10400000552309F4E5CE24E630E040E050E06BE4CF
:1040100070E080E090E00E9481276B0182E090E0F8
:10402000BD8AAE8A1C141D040CF06CC0DC01ED8945
:10403000FE89AE1BBF0BB88BAF878F8498884D89E4
:104040005E89840E951E4C3051050CF055C04F5FB3
:104050005F4F5E874D870C3011050CF044C0A12CDA
:10406000B12CE12CF12CB7016F5F7F4FE414F50404
:1040700021F441E050E085E006C0E614F70431F495
:1040800041E050E083E00E942C1117C02091040110
:10409000309105018D899E8941E050E0E816F906CE
:1040A00021F46D857E8585E006C0E016F10611F4E9
:1040B00083E001C088E00E9494109FEFE91AF90A9A
:1040C000ACE0EA16F10479F6B1E0CB1AD108C114DC
:1040D000D104C1F0EFEFAE1ABE0AA814B9040CF275
:1040E0000F5F1F4FB8CF2D893E892F5F3F4F3E8B0B
:1040F0002D8B00E010E0A1CFB12CA12C00E010E04E
:10410000C4018ECF0E94E6254B015C01B8EECB2E98
:10411000B3E0DB2EA0C0181619064CF48BEC91E02E
:104120000E9479250E94BE001C821B822ACC0E941C
:10413000BE0041E050E0B1018B850E942C1184E06B
:104140000E941F27892B79F40E94BE002B853C8595
:104150002F5F3F4F3C872B872830310524F041E00B
:1041600050E05C874B878EE00E941F27892B61F40B
:104170000E94BE005FEF251A350A8DE02816310433
:104180001CF022242394312C8FE00E941F27892BBE
:1041900059F40E94BE0091E0291A3108211431041B
:1041A00019F49CE0292E312C82E00E941F27892BD4
:1041B00009F44FCEAFEFEA1AFA0ABBCFAD89BE8938
:1041C0000A171B0709F0D7C28F859889892B09F038
:1041D000CBC241E050E069897A8985E00E948F0274
:1041E000BFEFEB1AFB0AECE0EE16F10409F044C055
:1041F00084E00E941F27892B09F08CC00E94BE001A
:10420000FB8082E00E941F27892B31F461E070E07F
:1042100080E090E00E9409268EE00E941F27892BF3
:1042200009F09AC00E94E6252F81388549855A8574
:10423000280D391D4A1D5B1D2617370748075907EA
:1042400008F46AC031E0C31AD108C114D10409F4DA
:10425000C8C0F110C1C0E12CF12C960123703327A6
:10426000388B2F874D895E894F5F5F4F5A8B498B03
:10427000C80101969E878D872D893E89E216F30637
:1042800019F4E414F50431F0E016F10671F4E614C3
:10429000F70459F4209104013091050141E050E008
:1042A000B7016F5F7F4F87E032C04D895E89E416AA
:1042B000F50671F4E614F70409F071C220910401C7
:1042C0003091050141E050E0B7016F5F7F4F0FC0B3
:1042D000E016F10671F40415150509F06FCF209171
:1042E00004013091050141E050E06D857E8581E05B
:1042F0000EC02091040130910501B7016F5F7F4F1F
:1043000041E050E0E414F50409F027C285E00E9482
:10431000941066CFF12C75CF0F5F1F4F2F8138851A
:1043200049855A8528583341410951092F833887D7
:1043300049875A870C3011050CF440C04D895E89BD
:104340004F5F5F4F5E8B4D8B00E010E04C305105AE
:10435000ACF11E8A1D8A32C08FE00E941F27892B74
:1043600091F50E94E6252F81388549855A85280DCB
:10437000391D4A1D5B1D261737074807590708F0E6
:1043800061CF015011098F819885A985BA85885818
:104390009341A109B1098F839887A987BA8717FF2D
:1043A0000DC0AD89BE891197BE8BAD8B0BE010E0BF
:1043B000B7FF04C0EBE0F0E0FE8BED8B0E94E6253A
:1043C0004B015C013FCF20EA36E841E050E02F830B
:1043D000388749875A8736CFED89FE89E415F50578
:1043E00019F10AE010E0EE24E394F12C43E050E0F0
:1043F000B70181E00E942C119FEFE91AF90AADE0A4
:10440000EA16F10499F7015011090115110559F740
:104410008BEC91E00E947925EE24E394F12CE1E00D
:10442000F0E0FC83EB8301CD06151705D1F60AE019
:1044300010E0EE24E394F12C43E050E0B70183E078
:104440000E942C114FEFE41AF40A5DE0E516F10426
:1044500099F7015011090115110559F78BEC91E0FD
:104460000E94792585E8C81683E0D80664F085E0C7
:1044700090E00E945515EE24E394F12CA2E0B0E008
:10448000BC83AB83D2CCBDEBCB16B2E0DB0654F0E1
:1044900084E090E00E945515EE24E394F12CE2E0D4
:1044A000F0E0BFCFF5EFCF16F1E0DF0664F083E078
:1044B00090E00E945515EE24E394F12C22E030E0C8
:1044C0003C832B83B2CC3DE2C31631E0D30664F0CB
:1044D00082E090E00E945515EE24E394F12C42E036
:1044E00050E05C834B83A1CC81E090E00E945515A5
:1044F000EE24E394F12C82E090E095CC20E031E0D2
:1045000040E050E060E870E080E090E00E948127A9
:104510002B0121E030E0E12CF12C141415040CF0F7
:104520004CC0E6E0CE2EE1E0DE2EE12CF12C812C19
:10453000912CD6010D90BC91A02DBC83AB8347E09C
:1045400050E0F60151834083F6E06F2EF1E07F2EBC
:10455000A12CB12C5FEFA51AB50AD3018C91B2E062
:104560006B0E711C41E050E0B5012B8B3C8B0E941F
:104570002C112B893C89ECE0AE16B10459F7EB8184
:10458000FC81D601ED93FC93F1E04F1A51084114E0
:10459000510481F04FEF841A940A821693064CF26C
:1045A000C701019652E0C50ED11C8C30910511F067
:1045B0007C01BDCF2F5F3F4FB0CF6701CC0CDD1C1E
:1045C000E016F10609F040C083E090E0F601EA5FF2
:1045D000FE4F9183808369E1E62EF12C56E0A52EF3
:1045E00051E0B52E01E010E0D5018C91B2E0AB0EA8
:1045F000B11C43E050E0B8010E942C110F5F1F4F27
:104600000D30110589F78BEC91E00E947925E1E0EE
:10461000EE1AF108E114F10409F7F601EA5FFE4F22
:1046200088E090E0918380834D855E854E5F5F4F8B
:104630008CE0F82FF49FC001F59F900D11240E948B
:10464000551522E030E074C001701127E0FE03C070
:10465000012B19F43AC0012BC1F585E090E0F60179
:10466000EA5FFE4F9183808349E1E42EF12C36E02E
:10467000A32E31E0B32E01E010E0D5018C91B2E021
:10468000AB0EB11C43E050E0B8010E942C110F5F4B
:104690001F4F0D30110589F78BEC91E00E947925B1
:1046A000E1E0EE1AF108E114F10409F7F601EA5F1E
:1046B000FE4F88E090E0918380838D859E850196F2
:1046C000880F991F0E94551531C0F601EA5FFE4F11
:1046D00041E050E05183408309E110E086E0E82E9C
:1046E00081E0F82EAA24A394B12CD7018C91B2E0DA
:1046F000EB0EF11C43E050E0B5010E942C11EFEFEE
:10470000AE1ABE0AFDE0AF16B10479F78BEC91E06A
:104710000E9479250150110901151105F9F6F601DC
:10472000EA5FFE4F88E090E09183808321E030E0F3
:104730003C832B83E6E0F1E088E090E041E050E04C
:104740005183408393838283349651E0EE31F507A1
:10475000A9F7EE24E394F12CE7CAE614F70411F468
:1047600083E0D5CD88E0D3CD2CE231E041E050E0CC
:1047700069897A8910C0AF85B889AB2B31F441E0E3
:1047800050E06D857E8583E029CD2CE231E041E06B
:1047900050E06D857E8588E00E941F1021CDE016D7
:1047A000F10609F011CD97CD0F931F93CF93DF93AF
:1047B00080913601882321F08BEC91E00E947925CD
:1047C0000E949B00181619060CF09FC084E00E94FE
:1047D0001F27892B09F069C0C0E0D0E084E00E9467
:1047E0001F27892B09F056C08EE00E941F27892BB6
:1047F000E9F582E00E941F27892BA9F18EE00E9433
:104800001F27892B91F48091B2019091B3012091DF
:10481000C7013091C801281739072CF41092B30151
:104820001092B20117C0019611C08FE00E941F279D
:10483000892B91F48091B2019091B301009729F4F2
:104840008091C7019091C80101C001979093B30175
:104850008093B2010E94BE008091B2019091B30199
:104860000E944002C6CF0E949B0110C08FE00E94B0
:104870001F27892B09F0B2CF0E94BE008BEC91E07C
:104880000E94792580E090E00E9455150E94BE00AC
:104890002196A4CF8BEC91E00E9479250E94BE0066
:1048A000CD2B99F50E94881C30C082E00E941F2702
:1048B000892B59F504EF11E082E00E941F27892B14
:1048C00021F584E00E941F27892B69F4C0E0D0E025
:1048D00084E00E941F27892B79F782E00E941F271E
:1048E000892BC1F1E9CF82E00E941F27892B21F794
:1048F0008EE00E941F27892B09F493C08FE00E944D
:104900001F27892B09F48DC0D7CF8FEF90E00E942D
:10491000400220E23EE440E050E060E177E280E0E7
:1049200090E00E9481278B01C0E0D0E0C8018C1B81
:104930009D0B029708F47AC00E949B0021961816DE
:1049400019060CF473C061E070E080E090E00E9412
:104950000926ECCF219661E070E080E090E00E94B3
:104960000926C03187E2D8070CF4B2CF1092CA01F1
:104970001092C9011092C8011092C7011092B301A0
:104980001092B201109305010093040140E069E127
:1049900070E08EEC91E00E94982540E06AE170E0C2
:1049A0008EEC91E00E94982540E06BE170E08EEC87
:1049B00091E00E94982540E06CE170E08EEC91E07F
:1049C0000E94982540E060E070E08EEC91E00E944B
:1049D000982540E061E070E08EEC91E00E9498251F
:1049E00040E065E170E08EEC91E00E94982540E0A7
:1049F00066E170E08EEC91E00E94982540E060E274
:104A000070E08EEC91E00E94982540E061E270E059
:104A10008EEC91E00E9498250E94FF1B0E94D423F7
:104A200057CF0E94AD110E94BE0046CFDF91CF91BB
:104A30001F910F9108954CE06FE771E08BEC91E0CE
:104A40000C948F250F931F93CF93DF93EC01062FC8
:104A500010E0E981FA81E00FF11F61E080810E949E
:104A6000B026E981FA81E00FF11F61E08081DF91DA
:104A7000CF911F910F910C94E9260F931F93CF9321
:104A8000DF93EC01062F10E0E981FA81E00FF11FBE
:104A900061E080810E94B026E981FA81E00FF11F78
:104AA00060E08081DF91CF911F910F910C94E926F6
:104AB0000F931F93CF93DF931F92CDB7DEB78C0177
:104AC000862F442371F0C80179830E9422257981C1
:104AD000672FC8010F90DF91CF911F910F910C9418
:104AE0003D2560E00F90DF91CF911F910F910C94C5
:104AF000B0261F93CF93DF93EC0110E08881181745
:104B000050F4E981FA81E10FF11D60E080810E949B
:104B1000B0261F5FF3CFDF91CF911F910895FC0165
:104B20007283618340830C947925CB010C9488288F
:104B3000CB01642F0C9490281F920F920FB60F9206
:104B400011242F933F938F939F93AF93BF938091A3
:104B5000D0019091D101A091D201B091D3013091B7
:104B6000CF0123E0230F2D3720F40196A11DB11DA5
:104B700005C026E8230F0296A11DB11D2093CF0189
:104B80008093D0019093D101A093D201B093D3012F
:104B90008091D4019091D501A091D601B091D70117
:104BA0000196A11DB11D8093D4019093D501A093CE
:104BB000D601B093D701BF91AF919F918F913F9153
:104BC0002F910F900FBE0F901F9018953FB7F8943C
:104BD0008091D4019091D501A091D601B091D701D7
:104BE00026B5A89B05C02F3F19F00196A11DB11D48
:104BF0003FBF6627782F892F9A2F620F711D811D65
:104C0000911D42E0660F771F881F991F4A95D1F7C3
:104C10000895CF92DF92EF92FF92CF93DF936B01D3
:104C20007C010E94E625EB01C114D104E104F104EA
:104C300079F00E94E6256C1B7D0B683E7340A0F363
:104C400081E0C81AD108E108F108C851DC4FECCF67
:104C5000DF91CF91FF90EF90DF90CF9008957894FF
:104C600084B5826084BD84B5816084BD85B5826071
:104C700085BD85B5816085BDEEE6F0E0808181600F
:104C80008083E1E8F0E0108280818260808380810F
:104C900081608083E0E8F0E0808181608083E1EBE7
:104CA000F0E0808184608083E0EBF0E080818160CF
:104CB0008083EAE7F0E08081846080838081826085
:104CC000808380818160808380818068808310926E
:104CD000C10008958E3008F08E50877020918B01AE
:104CE00090E4299F90011124822B80937C00809175
:104CF0007A00806480937A0080917A0086FDFCCFF0
:104D0000809178002091790090E0922B0895833073
:104D100081F028F4813099F08230A1F00895863036
:104D2000A9F08730B9F08430D1F4809180008F7D74
:104D300003C0809180008F7780938000089584B5B0
:104D40008F7702C084B58F7D84BD08958091B000B7
:104D50008F7703C08091B0008F7D8093B00008955D
:104D6000CF93DF9390E0FC01E458FF4F2491FC01C6
:104D7000E057FF4F8491882349F190E0880F991FF5
:104D8000FC01E854FF4FA591B49182559F4FFC015F
:104D9000C591D4919FB7611108C0F8948C9120956A
:104DA00082238C93888182230AC0623051F4F89464
:104DB0008C91322F309583238C938881822B88832A
:104DC00004C0F8948C91822B8C939FBFDF91CF917C
:104DD00008950F931F93CF93DF931F92CDB7DEB744
:104DE000282F30E0F901E859FF4F8491F901E45888
:104DF000FF4F1491F901E057FF4F04910023C9F0D0
:104E0000882321F069830E9487266981E02FF0E0E2
:104E1000EE0FFF1FE255FF4FA591B4919FB7F89495
:104E20008C91611103C01095812301C0812B8C935B
:104E30009FBF0F90DF91CF911F910F910895CF9356
:104E4000DF93282F30E0F901E859FF4F8491F901F1
:104E5000E458FF4FD491F901E057FF4FC491CC23A0
:104E600091F081110E948726EC2FF0E0EE0FFF1FDA
:104E7000EC55FF4FA591B4912C912D2381E090E04A
:104E800021F480E002C080E090E0DF91CF910895AE
:104E90000E942F260E94FF1BC0E0D0E00E94D42376
:104EA0002097E1F30E940000F9CF009729F0BC01A0
:104EB00080E090E00C947F280895CF93DF9300D09A
:104EC00000D0CDB7DEB79B01AC016115710581053E
:104ED000910569F069833A834B835C830E947A2849
:104EE00029813A814B815C810E94B62703C060E032
:104EF00070E0CB010F900F900F900F90DF91CF914A
:104F00000895CF92DF92EF92FF926B017C016217BE
:104F100073078407950764F4CA01B9016C197D0908
:104F20008E099F090E945D276C0D7D1D8E1D9F1DA2
:104F3000FF90EF90DF90CF90089570E09B01382BA9
:104F4000C901089597FB072E16F4009407D077FD4A
:104F500009D00E94E02707FC05D03EF4909581958A
:104F60009F4F0895709561957F4F0895052E97FB8B
:104F70001EF400940E94CD2757FD07D00E94F4270D
:104F800007FC03D04EF40C94CD27509540953095F6
:104F900021953F4F4F4F5F4F0895909580957095A5
:104FA00061957F4F8F4F9F4F08950E941C28A59FAA
:104FB000900DB49F900DA49F800D911D1124089514
:104FC000AA1BBB1B51E107C0AA1FBB1FA617B7072F
:104FD00010F0A61BB70B881F991F5A95A9F780954B
:104FE0009095BC01CD010895A1E21A2EAA1BBB1B0E
:104FF000FD010DC0AA1FBB1FEE1FFF1FA217B307A5
:10500000E407F50720F0A21BB30BE40BF50B661FBA
:10501000771F881F991F1A9469F76095709580957E
:1050200090959B01AC01BD01CF010895EE0FFF1FCC
:105030000590F491E02D0994A29FB001B39FC001A7
:10504000A39F700D811D1124911DB29F700D811DB4
:105050001124911D08958F929F92AF92BF92CF928B
:10506000DF92EF92FF92CF93DF93EC016881798119
:105070008A819B81611571058105910521F464E2A6
:1050800079ED8BE597E02DE133EF41E050E00E94B0
:10509000B62749015A019B01AC01A7EAB1E40E947D
:1050A000D5276B017C01ACEEB4EFA50194010E9401
:1050B000A128C60ED71EE81EF91EF7FE06C081E025
:1050C000C81AD108E10880E8F80AC882D982EA82C1
:1050D000FB82C701B6019F77DF91CF91FF90EF90E0
:1050E000DF90CF90BF90AF909F908F9008950E94D7
:1050F0002B28089580E091E00E942B28089560936A
:1051000000017093010180930201909303010895BF
:10511000F999FECF92BD81BDF89A992780B508957F
:10512000262FF999FECF1FBA92BD81BD20BD0FB6C3
:10513000F894FA9AF99A0FBE01960895B7FF0C9465
:10514000D5270E94D527821B930B0895F894FFCF93
:1051500001000000F4010800080008000800080031
:1051600008000800080008000800080008000800FF
:1051700008000800080008000800080008000800EF
:10518000080008000800010809080B080A090809B6
:105190000A090B0B090B0A0B080A0B0A090A080576
:1051A00007050605040706070407050604060506A5
:1051B00007040604050407030003010302010201BA
:1051C0000001030001000300020200020102030DBE
:0C51D0000C0B0A0607080913121110014D
:00000001FF
